:020000040800F2
:10000000B81D00207502000879370008F5240008A3
:100010004D360008F91C00084D5300080000000090
:10002000000000000000000000000000B94A0008C5
:10003000FD1C0008000000002D440008E9520008E3
:100040008F0200088F0200088F0200088F0200084C
:100050008F0200088F0200088F0200088F0200083C
:100060008F0200088F0200088F0200088F0200082C
:100070008F0200088F0200088F0200088F0200081C
:100080008F0200088F0200088F0200088F0200080C
:100090008F0200088F0200088F0200088F020008FC
:1000A0008F0200088F0200088F0200088F020008EC
:1000B0008F0200088F0200088F0200088F020008DC
:1000C0008F0200088F0200088F0200088F020008CC
:1000D0008F0200088F0200088F0200088F020008BC
:1000E0005D1D00088F0200088F02000800F002F872
:1000F00000F0B0F80AA090E8000C82448344AAF112
:100100000107DA4501D100F0A5F8AFF2090EBAE80F
:100110000F0013F0010F18BFFB1A43F0010318473B
:10012000585D0000785D00000A444FF0000C10F8A4
:10013000013B13F0070408BF10F8014B1D1108BF65
:1001400010F8015B641E05D010F8016B641E01F805
:10015000016BF9D113F0080F1EBF10F8014BAD1C55
:100160000C1B09D16D1E58BF01F801CBFAD505E073
:1001700014F8016B01F8016B6D1EF9D59142D6D3CD
:10018000704700000023002400250026103A28BFF5
:1001900078C1FBD8520728BF30C148BF0B607047F9
:1001A0006E2900F0F381702900F03583662905F08F
:1001B0001F81652905F01C81672905F019816129D6
:1001C00005F0188103681B0A28BF41F080016929E6
:1001D00000F0A081642900F09D81752900F09A81CA
:1001E0006F2900F0C282782900F00183E92900F02C
:1001F0005D82E42900F05A82F52900F05782EF2948
:1002000000F0BF82F82900F000830368DB0928BFF3
:1002100041F08001632901F00380732901F0088017
:10022000E32901F01380F32901F0188000207047C2
:100230001FB501F069F804000020002105F0C2F8A4
:10024000401C60600020002105F0A6F8E0601FBDA2
:1002500010B510BD01F02AF81146FFF7E9FF05F0CF
:1002600092F801F007F903B4FFF7F2FF03BC01F0C5
:100270000BF900000948804709480047FEE7FEE700
:10028000FEE7FEE7FEE7FEE7FEE7FEE7FEE7FEE746
:1002900004480549054A064B70470000ED52000826
:1002A000ED000008B8170020B81D0020B819002084
:1002B000B819002053EA020C00F069802DE9F04BD8
:1002C0004FF00006002B1FBFB3FA83F503FA05F4C5
:1002D00024FA05F65E4012BF1643B2FA82F502FA1E
:1002E00005F4C5F120051EBF22FA05FC44EA0C0402
:1002F000203556EA044C4FEA144418BF641C4FF0F2
:1003000000084FF00009904271EB030C39D300292B
:1003100019BFB1FA81F701FA07F6B0FA80F700FACF
:1003200007F6C7F120071EBF20FA07FC46EA0C06B5
:100330002037B6FBF4FCA7EB0507103F07F01F0BB7
:10034000CBF120060CFA0BFB2CFA06F644BFB346A1
:100350000026202FA4BF5E464FF0000B5BEA060C80
:1003600008BF4FF0010B19EB0B09ABFB027C48EB0C
:100370000608C01B06FB02CC0BFB03CC71EB0C0187
:10038000C1E70B46024641464846BDE8F08B13B52F
:100390004FF000004FF00001AFF30080BDE81C40BB
:1003A000704700001CB50C46064B7B446946009024
:1003B000204600F004F904460020694600F012F9D6
:1003C00020461CBD370200004FF0013C50F8042BC2
:1003D00051F8043B9A4221D1A2EB0C03934313EA58
:1003E000CC1317D150F8042B51F8043B9A4215D185
:1003F000A2EB0C03934313EACC130BD150F8042B5C
:1004000051F8043B9A4209D1A2EB0C03934313EA3F
:10041000CC13DBD04FF00000704700BFD01A01BAF8
:10042000B1FA81F101F0180122FA01F0CB40C1F1DB
:100430002001DBB2C0B2C01A2CFA01F3D11A9143E9
:1004400011EAC311E6D1704770477047704770B525
:10045000044685690068C10601D5302600E02026E3
:10046000C00707D070BDD4E9012130469047206A0B
:10047000401C20626D1EF6D570BD70B504468569BE
:100480000078C00707D170BDD4E901212020904732
:10049000206A401C20626D1EF6D570BD09684A05B1
:1004A00001D540B27047C905FCD500B27047096854
:1004B0004A0501D5C0B27047C905FCD580B2704766
:1004C00070B50C460546012A05D02878800600D56F
:1004D000EA69002302E0012305E05B1C934202D29B
:1004E000E05C0028F9D1A869E618C01AA861286A5A
:1004F000184428622846FFF7AAFF04E0D5E9012145
:1005000014F8010B9047B442F8D32846FFF7B5FF23
:1005100070BD00002DE9F0410646002410687529E1
:10052000314616A510D0FFF7B9FF002802DA404285
:1005300013A507E031688A0701D512A502E0490733
:1005400004D511A5012401E0FFF7B1FF00210A2223
:1005500006F1240709E0B0FBF2FCB0FBF2F302FB6A
:100560001C00303078541846491C0028F3D123462B
:100570002A463046BDE8F04100F061BA00000000B4
:100580002D0000002B000000200000001168026810
:10059000006A530501D508700AE0D30501D508802B
:1005A00006E0130603D5C217C1E9000200E00860A7
:1005B0000120704701694A1C02610878704700B544
:1005C0008FB0CDE901310021059105497944CDE98C
:1005D00003101146684600F029F90FB000BD000075
:1005E000E5FFFFFF0A6802F8010B0A607047000090
:1005F0002DE9FF5F15468A460446DFF8AC80F844D3
:100600000027D8E900103E46CDE9001010E03AF886
:1006100016106A4602A800F025FE411C07D021787A
:10062000890603D5E269391891420DD80744761C32
:100630002078800602D5E069B84205DDAE42E6DBEF
:100640003AF816000028E2D1A069C01BA06120463C
:10065000FFF7FDFED8E90010CDE90010002017E0FB
:100660003AF818106A4602A800F0FCFDB0F1FF3F0E
:1006700081460BD000250DF1080B05E0D4E90121DE
:100680001BF8050090476D1C4D45F7D308F101009C
:10069000B0428046E4DB206A384420622046FFF7FF
:1006A000ECFEBDE8FF9F00007A5700002DE9F04105
:1006B0008046D21D22F007020025D2E90002F5296A
:1006C00015A614D0011E72F1000106DA0023D0EB4A
:1006D000030063EB020211A608E0D8F800108B07B4
:1006E00001D50FA602E0490701D50EA60125114646
:1006F000002408F1240704E000F05CF930323A5598
:10070000641C50EA0102F7D12B463246214640468E
:10071000BDE8F04100F093B9000000002D0000009A
:100720002B0000002000000030B4002100F1240460
:1007300008E002F00705D208303542EA4372DB08D0
:100740006554491C52EA0305F3D10468002310A242
:10075000250707D5A40600D421B1C46901230DA241
:10076000641EC46130BC00F06AB910B5044621466D
:100770001068FFF79CFE02462046BDE810400023AB
:10078000D2E7D21D22F00701D1E90023CCE7000017
:100790000000000030000000F0B40D46018809059B
:1007A00002D5214C7C4402E01F4C7C440E340021D5
:1007B00000F1240608E002F00F071209E75D42EAA3
:1007C00003721B097754491C52EA0307F3D10278DC
:1007D0000023120704D5702D06D009B1022311346D
:1007E0002246F0BC00F02BB901231034F8E770B5B5
:1007F00004460D4621461068FFF759FE0246294679
:100800002046BDE870400023C6E7D21D22F0070352
:10081000D3E90023C0E70368126843F020030360B4
:100820000823C3610023B7E7DC5500002DE9F05F22
:10083000894604464FF0000ADFF874B1FB44C0F863
:1008400020A02046E1688847002874D0252806D0DB
:10085000D4E901219047206A401C2062F1E700267C
:100860005F462046E16888472028054607DB312D92
:1008700005D2781910F8200C08B10643F1E7B0074B
:1008800001D526F00406C4F81CA00027C4F818A05F
:100890002A2D09D0284604F06FFD38B304EB8708F1
:1008A000303DC8F8185019E059F8041B204604EBF5
:1008B00087029161E1688847012F054618D1E069F8
:1008C000002820DA26F020061DE0D8F8180000EBFA
:1008D000800005EB40003038C8F818002046E16879
:1008E0008847054604F048FD0028EED1012F0AD0C4
:1008F0002E2D08D12046E16888477F1C0546022F2F
:1009000046F02006C4DBA069002803DA404246F026
:100910000106A061F00701D026F010066C2D0BD067
:10092000682D09D04C2D39D06A2D35D0742D35D095
:100930007A2D33D016E038E0E1682F46204688470C
:10094000B842054609D16C2F26D04FF48060E1688B
:10095000064320468847054604E06C2F1AD04FF422
:10096000807006430DB3A5F14100192802D8203547
:1009700046F400664A462946204626604E46FFF762
:100980000FFC80B101280BD0F61D26F0070000F106
:10099000080956E74020E4E78020D8E70020D6E7A2
:1009A00006F104094DE7284652E7206ABDE8F09FAA
:1009B0006C55000030B5B0F10A024FEA900E71F1AB
:1009C00000034EEA817EB0EB0E0061EB91014FEA2D
:1009D000101E4EEA017E10EB0E0041EB11114FEAA2
:1009E000102E4EEA016E10EB0E0041EB11214FEA82
:1009F000104E4EEA014E10EB0E0041EB1141401833
:100A000041F100014FEAD00040EA41704FEAD101C4
:100A100010EB80054FEA810444EA907444EB010432
:100A20006D1944EB0404521BA3414FF0000348BF6F
:100A30000A3200D530BD401C41F1000130BD2DE926
:100A4000F0470D4699469246044600F12408016895
:100A5000880604D5E06921F01001216000E0012042
:100A6000A84201DD471B00E00027A1697A1902EBCB
:100A70000900081AA0612078C00602D42046FFF7BA
:100A8000E6FC002608E0D4E901211AF806009047A8
:100A9000206A401C761C20624E45F4DB2078C0069C
:100AA0000AD52046FFF7D3FC06E0D4E90121302027
:100AB0009047206A401C2062381EA7F10107F4DC31
:100AC00007E0D4E9012118F805009047206A401C8E
:100AD0002062281EA5F10105F3DC2046FFF7CDFCBE
:100AE0002078000602D50220BDE8F0870120FBE750
:100AF00070472DE9FF4F0C461E464FF0FF378BB075
:100B0000D2E90001DDF860800A908A46C1F30A55F7
:100B100005B93D46002108464FF00000BAF1000F2C
:100B200000F4400005DA00EB80004FF4400101EAD8
:100B300050004FEA9059B9F1010F00DDB9460A980B
:100B400050EA4A000ED044F61050A5F2FF35454356
:100B50002F14B8F1000F1ED07542291E1EDDC9F1F9
:100B600000021CE0B8F1010F4FF0000001D030216D
:100B700003E0F24305E02154401CB042FBDB304669
:100B80000022002121540B99C1F80880C1E90020FE
:100B90000FB0BDE8F08FBD1B6D1CDEE74A4600DAE2
:100BA000694206A800F0F4FB06AB93E8070003AB2C
:100BB00083E8070050460A9900F06DFC8DE80700B5
:100BC000A0F500501F3800900398002D0ADD42F276
:100BD0001F014A460844002303A90390684600F019
:100BE000D6FE09E0A0F500504A461F38002303A9AD
:100BF0000390684600F0E0FE8DE807000004000C5A
:100C000003D04FF0FF30410800E01046B8F1000F6C
:100C100003D00022009215461EE0751E05D4FFF792
:100C2000C9FE303262556D1EF9D5B3460122084324
:100C300002D000227F1C04E02078302801D100225D
:100C40007F1E002A099784D01DE0112D07DAFFF7D7
:100C5000B1FE303262556D1C50EA0102F5D10843F5
:100C600002D00098C8B10EE00021681E05E0235CA8
:100C7000625C63542254401E491C8142F7DBAB4640
:100C8000A81B401E0990002004F80B000B98099A3D
:100C9000C0F80880C0E9002B7AE711264FF0000861
:100CA00057E72DE9F04F88460446D21D22F0070190
:100CB00091B0D1E90001CDE90A0104F049FB0246F7
:100CC0000B98C00F01D02D2007E02068810701D5C7
:100CD0002B2002E0202101EAC000032A099001D064
:100CE000072A05DB03464146204600F011FB0BE1D5
:100CF0002078800601D5E06900E00620B8F1650F94
:100D0000814606D0B8F1660F18D0B8F1670F70D1E0
:100D100031E00020B9F1110F009001DB112301E057
:100D200009F101030AAA01A90CA8FFF7E2FEDDE917
:100D30000C70002609F10105834647E001204B466F
:100D400000904FF000470AAA01A90CA8FFF7D1FEB6
:100D5000DDE90DB00C995D46002610B909F10100DE
:100D60000D18B9EB050003D4C0F1FF3609F10105F8
:100D7000A5EB09002BE0B9F1010F01DA4FF00109F1
:100D80000020B9F1110F0090484601DD112300E069
:100D900003460AAA01A90CA8FFF7ABFEDDE90C7017
:100DA0004D4600268346207800070AD4AB4500DA7A
:100DB0005D4601A8012D04DD411911F8011C3029FF
:100DC00007D04F4502DA17F1040F04DA01208246FA
:100DD0000FE06D1EEEE7002F02DCED1B3E4403E04A
:100DE000781CA84200DD7D1CB81B00F1010A4FF001
:100DF00000472078000703D4AA4501DB4FF0FF3AF3
:100E00000021B7F1004F0DF143088DF8431024D0B5
:100E100002202B23002F01DA7F422D230A21021EFC
:100E2000A0F1010000DC5FB197FBF1FC97FBF1F250
:100E300001FB1C7C17460CF1300C08F801CDEEE7E5
:100E4000A8F1010003702188090501D5452100E0C2
:100E50006521A0F1010800F8011C09980FA9A1EB78
:100E60000807FF1D00B10120411901EBEA70A169DB
:100E70003844081A401EA0612078C00602D42046DB
:100E8000FFF7E5FA099828B1D4E901219047206AD3
:100E9000401C20622078C00622D52046FFF7D7FAF2
:100EA0001EE0002E04DBB34502DD01A8805D00E0FA
:100EB0003020D4E901219047206A401C2062761C32
:100EC000AAF101005FEA000A0AD100F01DFAC06829
:100ED0000168405CD4E901219047206A401C2062EF
:100EE000281EA5F10105DCDC07E0D4E9012118F892
:100EF000010B9047206A401C2062381EA7F10107B1
:100F0000F3DC2046FFF7B9FA032011B041E60000F8
:100F10002DE9F04F04460D46D21D22F0070089B09E
:100F2000D0E900974846394604F012FA0246F80F15
:100F300001D02D2307E02068810701D52B2302E093
:100F4000202101EAC0038DF820300BB1012000E020
:100F50000020032A824601D0072A04DB29462046C6
:100F600000F0D6F93FE12078800601D40D2500E09D
:100F7000E569C7F30A560D2D49DA00214FEA175BE0
:100F800008464FF00000002F00F4400007DA00EBA5
:100F900080004FF4400100EBD07001EA6000811541
:100FA000012901DD4FF0FF3100224FEA850CBCF131
:100FB000180F06D31346ACF118004FF08052C24010
:100FC00003E04FF4801323FA0CF30CF10C0CBCF18A
:100FD000200F04D3ACF1200C09FA0CF001E007FA61
:100FE0000CF000294FF0004801DD18B90FE00ED1D8
:100FF00040450CD319EB02095F4121B9404502D1AC
:101000009F4329EA0209BBEB175F00D0761C2088BA
:10101000000502D57B48784402E07A4878441938C4
:1010200008AA302302F80A30037C0AF10101002EDD
:101030000AF1020A53546A4602DC4FF0300101E023
:101040004FF031014FF001088DF8001002D0A6F2E8
:10105000FF3603E059EA470100D06B4E002D02DC59
:101060002178090704D54FF002082E218DF80110D0
:10107000C44600210BE0C7F303433F01C35C491C96
:101080006D1E02F80830052908F1010801DA002D6B
:10109000F1DC00210CE000EB1973491C1B786D1E7C
:1010A000082902F808304FEA091908F1010801DAA5
:1010B000002DF0DC21688B0602D516E0A8F10108AE
:1010C000E04505DD02EB080313F8013C302BF5D0B9
:1010D000B8F1000F09DD02EB080313F8013C2E2BD9
:1010E00003D1090701D4A8F10108002D05DD3E2137
:1010F00002F808106D1E08F10108407C002E02F86D
:10110000080008F1010804DA2D20764202F80800F0
:1011100002E02B2002F808000A214FF47A70864280
:1011200008F101080BDB96FBF0F3303302F80830CE
:1011300096FBF0F308F1010800FB136601E0642E52
:101140000CDB642096FBF0F3303302F8083096FB9A
:10115000F0F308F1010800FB136601E00A2E06DB3C
:1011600096FBF1F0303002F8080008F1010896FB18
:10117000F1F001FB1060303002F80800A16908F1BD
:10118000010808EB050202EB0A00081AA0612078AA
:10119000C00602D42046FFF75AF9216A08AE01EBD7
:1011A0000A00206204E0D4E9012116F8010B9047FF
:1011B000BAF1010AF7D22078C00602D52046FFF71F
:1011C00046F96E4609E016F8010B3E280FD0D4E927
:1011D00001219047206A401C2062B8F10108F2D238
:1011E0002046FFF74AF909B00320BDE8F08F206AD6
:1011F0002844206203E0D4E90121302090476D1E8D
:10120000EBD3F8E7B64D000002FCFFFF10B54369D1
:1012100013B1AFF3008001E0FFF752F9012010BDD8
:10122000127800F124010A7000224A700122EDE7D1
:1012300011684FF0FF32E9E710B5436913B1AFF31E
:10124000008001E0FFF7D4F9012010BD128800F101
:10125000240182840022C2840122EDE711684FF04C
:10126000FF32E9E770B516460C46054600F044F833
:10127000036893F80101012806D0FF2C0FD8185DF0
:1012800068B101202C7070BDD3F8070132462146A9
:1012900003F2071303442846BDE8704018474FF097
:1012A000FF3070BD00487047581700207546FFF7A3
:1012B000F9FFAE4605006946534620F00700854613
:1012C00018B020B5FEF7E4FFBDE820404FF000065F
:1012D0004FF000074FF000084FF0000B21F007011E
:1012E000AC46ACE8C009ACE8C009ACE8C009ACE861
:1012F000C0098D467047000010B500F005F8001DCC
:1013000010BD00BFC14000000048704778170020A2
:101310002DE9F0411F46044603260168072A01F41F
:10132000006004DB08B116A505E016A503E008B1CE
:1013300015A500E015A521F010002060A069C01ED1
:10134000A0610FB1401EA0612046FFF780F84FB1A9
:10135000D4E9012138469047206A401C2062C01C15
:10136000206206E0206AFAE7D4E9012115F8010BB2
:101370009047761EF8D22046FFF77FF8BDE8F0814F
:101380004E414E006E616E00494E4600696E660029
:101390002DE9F047814616468AB0354878440DC895
:1013A0008DE80D0032487844801C03AC0DC884E8F9
:1013B0000D0041F69B300844372190FBF1F290FB81
:1013C000F1F5A5F1800501FB12041B3C02D5644236
:1013D000012000E00020DFF898A080460027FA44B2
:1013E000AAF1BE0A0EE0E0070AD03246684607EBD3
:1013F000470101230AEB810100F0DEFA8DE80700C6
:1014000064107F1C002CEED1194F7F44AE3F19E0D1
:10141000E80715D007EB04100DF1180A90E80E004C
:101420008AE80E00C068F04201D19819089032464F
:10143000012306A903A800F0BFFA03AB83E8070065
:101440006D10641C002DE3D14FF001033246694654
:10145000B8F1000F03A802D000F099FA01E000F003
:10146000ABFAC9E90001C9F808200AB0BDE8F08765
:10147000C04A000010B50446AFF300802046BDE826
:101480001040FEF7F0BE000001491820ABBEFEE799
:101490002600020070475FEA400C08BF91F0000F81
:1014A0004FEA8C234FEAC12243EA51514FEA1C50C4
:1014B00018BF00F5F0404FEA300018BF41F000417E
:1014C0005FEA6C5C00F02980BCF1FF3F08BF40F090
:1014D00080407047130C06BF12044FF0100C4FF001
:1014E000000C130E04BF12020CF1080C130F04BF02
:1014F00012010CF1040C930F04BF92000CF1020CCA
:10150000D30F04BF52000CF1010C11464FF0000242
:10151000A0F11F00A0EB0C00704711F0004F08BFB6
:10152000704731F000413FF4D5AF0B0C06BF090402
:101530004FF0100C4FF0000C0B0E04BF09020CF121
:10154000080C0B0F04BF09010CF1040C8B0F04BF36
:1015500089000CF1020CCB0F04BF49000CF1010C07
:10156000CCF12003A0EB0C0022FA03F302FA0CF2F8
:1015700041EA030100F10100704720F07F4C80EA4E
:10158000030023F07F47ACEB070303F57C5300F027
:10159000004003F1FF032DE980494FEA154B09B4E0
:1015A0004FEA144325EA0B4E24EA03480FF20426BF
:1015B00006EB132749083E785FEA320203FB066711
:1015C000C7F5000707FB06F64FEA54374FEAD64641
:1015D00006F1020607FB066CCCF1005C4FEA1C47E3
:1015E0002CEA074C07FB06F40CFB06F504EB15464A
:1015F0004FEA961634BF00204FF000404FEAD13733
:1016000006FB07FC4FEA1C4C0CFB0BF7D21B03FB41
:101610000CF761EB07010CFB0EF7B0EB074072EB28
:1016200017420CFB08F734BFA2EB0742B2EB0742AC
:1016300061EB17414FEA0C444FEA910706FB07FCA8
:101640004FEA1C4C0CFB0BF7B0EBC74072EB573268
:1016500003FB0CF734BFA2EBC742B2EBC74261EB0E
:1016600057310CFB0EF7B0EBC70072EB57720CFB57
:1016700008F734BFA2EBC702B2EBC70261EB5771A8
:10168000039F4FEA816141EA921104EBCC044FEAD7
:10169000D1374FEA826206FB07FC42EA90124FEA1A
:1016A00080604FEA1C4C0CFB0BF7D21B03FB0CF7C2
:1016B00061EB07010CFB0EF7B0EB074072EB174232
:1016C0000CFB08F734BFA2EB0742B2EB074261EB19
:1016D00017414FEA8C554FEA910704EB9C2406FB17
:1016E00007FC4FEA1C4C0CFB0BF7B0EBC74072EB4E
:1016F000573203FB0CF734BFA2EBC742B2EBC74231
:1017000061EB57310CFB0EF7B0EBC70072EB577271
:101710000CFB08F734BFA2EBC702B2EBC70261EBC8
:10172000577115EB4C254FEA816141EA92114FEA5E
:1017300082624FEAD13742EA901206FB07FC44F17D
:1017400000044FEA80604FEA1C4C0CFB0BF7D21BE5
:1017500003FB0CF761EB07010CFB0EF7B0EB074046
:1017600072EB17420CFB08F734BFA2EB0742B2EB57
:10177000074261EB174115EB1C154FEA813141EA35
:1017800092414FEA823242EA90424FEA80304FEA79
:101790000C7644F1000448EA03434EEA0B484FF04C
:1017A000000EB2EB080C71EB030724BF624639460A
:1017B0004EEB0E0E4FF0000B0018524149414BEB1F
:1017C0000B0BB2EB080C71EB03077BF1000B24BF92
:1017D000624639464EEB0E0E4FF0000B0018524198
:1017E00049414BEB0B0BB2EB080C71EB03077BF1A0
:1017F000000B24BF624639464EEB0E0E51EA02073B
:1018000018BF46F0010616EB0E7655F1000254F1B2
:10181000000103D5BDE88901BDE80088BDE8890164
:10182000BDE80048B619524141EB0101A3F10103A3
:10183000704780807F7E7D7C7B7A7978777676753D
:101840007473727171706F6E6E6D6C6C6B6A6A69B5
:101850006868676666656464636362616160605F4F
:101860005F5E5E5D5D5C5C5B5B5A5A5959585857C8
:101870005756565555555454535352525251515030
:1018800050504F4F4F4E4E4D4D4D4C4C4C4B4B4B83
:101890004A4A4A49494948484847474747464646C9
:1018A0004545454444444443434343424242424104
:1018B0004141002B9C4630D477002BD01CB54FEA19
:1018C000370703B44FF010004FF01001BAF1000FCA
:1018D00006D0BCF1000FDCBF40F0080040F008016A
:1018E0004FF000000FBCBDE810400BF1010BBBF145
:1018F000010F08BF5FEA170722BF12F1010211F1C1
:1019000001014FF0004143F1000300F0004043EAC1
:1019100000007047F9D35708D0E746EA064613F1AE
:10192000400F4FEA16461FDD13F1200FDFBF1643AD
:101930000A46002120335B42BED0C3F1200746EAAD
:10194000064602FA07F74FEA164646EA0706C3F1CB
:10195000200722FA03F201FA07F721FA03F14FF008
:10196000000342EA0702A7E746EA020646EA0646FD
:101970004FEA164646EA0106BCBF46EA0646360C62
:101980004FF000034FF000024FF0000194E72DE903
:10199000804C9A46934670B491E8380007C831EA03
:1019A000400C48BF34EA430C03D5FFF7E6FDFFF7D0
:1019B00080FFF0BCBDE8008C2DE9804C9A46934630
:1019C00070B491E8380007C810F0804F08BF13F0DA
:1019D000804F03D100F005F8FFF76BFFF0BCBDE8C6
:1019E000008C20F07F4780EA030023F07F4C07EB58
:1019F0000C03A3F57C5300F00040A3F1FE0392F02A
:101A0000000F00F0B38095F0000F00F077802DE913
:101A100001494FEA11404FEA144621EA004800FB11
:101A200006FC24EA064708FB06F607FB08F800FB5D
:101A300007F718EB06484CEB164C4FEA124B18EB25
:101A400007484FEA15464CEB174022EA0B4E0BFBBA
:101A500006FC25EA06470EFB06F607FB0EFE0BFB0F
:101A600007F71EEB064E4CEB164C4FF000061EEB34
:101A7000074E4CEB174B18EB0B0840F1000018EB2E
:101A80000E0B58EB000840F100008F1A4FF00001D8
:101A90003CBFC943661B14BFB5EB040C00213CBF1F
:101AA000C943F61B4FEA17444EEA8E0E27EA044557
:101AB0004FEA1C4704FB07622CEA074C05FB07F7BB
:101AC0000CFB05F604FB0CFC16EB074642EB174239
:101AD00016EB0C4642EB1C421BEB060658EB0202CF
:101AE000414146EA9E0601D5BDE80189B619524139
:101AF00041EB0101A3F10103BDE801894FEA14455F
:101B00004FEA114724EA054621EA074C05FB07F492
:101B100006FB07F70CFB06F105FB0CFC11EB07417C
:101B200044EB17444FEA124711EB0C4144EB1C44C1
:101B300022EA074C05FB07F206FB07F70CFB06F64B
:101B400005FB0CFC16EB074642EB174216EB0C4666
:101B500042EB1C456A1854F1000148BF7047B619A2
:101B6000524141EB0101A3F10103704795F0000FD1
:101B700037D04FEA11424FEA144721EA024624EADD
:101B8000074C02FB07F106FB07F70CFB06F402FB10
:101B90000CFC14EB074441EB17414FEA154714EBDB
:101BA0000C4441EB1C4125EA074C02FB07F506FB00
:101BB00007F70CFB06F602FB0CFC16EB074645EBA1
:101BC000174516EB0C4645EB1C42121951F100016A
:101BD00048BF7047B619524141EB0101A3F101031F
:101BE00070474FEA14454FEA114724EA054621EAB7
:101BF000074C05FB07F106FB07F70CFB06F24FF05D
:101C0000000605FB0CFC12EB074241EB174112EBFF
:101C10000C4251EB1C4148BF7047921841EB010147
:101C2000A3F1010370470000014691F90500801FF0
:101C3000032290FBF2F02B2250432D4A104491F9DD
:101C4000042091F907301A442A4B1B781A440323C5
:101C500092FBF3F2805CE8BB91F9050091F9062054
:101C600010440A38032290FBF2F02B225043204A02
:101C7000104491F9042091F907301A441D4B1B7848
:101C80001A44032392FBF3F2805C18BB91F9050020
:101C9000801F032290FBF2F02B225043144A104481
:101CA00091F90420134B1B78D21A032392FBF3F211
:101CB000805C78B991F9050091F9062010440A3842
:101CC000032290FBF2F02B225043094A104491F971
:101CD000042000E007E0074B1B78D21A032392FB95
:101CE000F3F2805C08B10120704700BFFCE7000000
:101CF000501400200E00002000BFFEE7704700B522
:101D0000034603E04FF47A7000F011F8181EA3F1B7
:101D10000103F7D100BD10B5044603E04FF47A701B
:101D2000FFF7EDFF201EA4F10104F7D110BD00EB79
:101D3000C001C9004FF0E0225161002191610521ED
:101D4000116100BF4FF0E021096901F480310029E1
:101D5000F8D004214FF0E0221161704710B54FF424
:101D6000804000F033F801280ED11021114800F016
:101D700036F9012804D110480078401C0E4908703B
:101D80004FF4804000F01CF84FF4004000F01EF8C3
:101D900001280ED14021074800F021F9012804D183
:101DA00006480078401C054908704FF4004000F0D8
:101DB00007F810BD000C01400000002001000020C9
:101DC00001490860704700001404014001460020EA
:101DD0000022074B1B6803EA0102054B14331B6802
:101DE0000B4013B10AB1012000E000207047000051
:101DF00000040140002123498279002A3AD00A4692
:101E0000126803689A430B461A600A1D1268036839
:101E10009A430B1D1A60027911440A6803681A4339
:101E20000A60184A0832126803689A43154B08334F
:101E30001A601A1D126803689A43124B0C331A6019
:101E40004279102A0ED11A1F126803681A430D4BEB
:101E500008331A601A1D126803681A43094B0C33C1
:101E60001A600DE00749427911440A6803681A4371
:101E70000A6005E0027911440A6803689A430A601F
:101E8000704700000004014030B500228B071C0F92
:101E90000F2303FA04F20B4B8C1053F824309343B6
:101EA000084C8D1044F8253023468C1053F824300C
:101EB0008C07240F00FA04F42343024C8D1044F8DD
:101EC000253030BD080001402DE9F04102460025D3
:101ED0000026002000230024002791F803C00CF006
:101EE0000F0591F803C00CF0100CBCF1000F03D0EB
:101EF00091F802C04CEA050591F800C0BCF1000F52
:101F000031D0146800202BE04FF0010C0CFA00F3E4
:101F1000B1F800C00CEA03069E4220D183004FF0C6
:101F20000F0C0CFA03F7BC4305FA03FC4CEA04045B
:101F300091F803C0BCF1280F06D14FF0010C0CFA48
:101F400000FCC2F814C00AE091F803C0BCF1480FCD
:101F500005D14FF0010C0CFA00FCC2F810C0401C77
:101F60000828D1D31460B1F800C0BCF1FF0F34DDF4
:101F7000546800202EE000F1080C4FF0010808FA28
:101F80000CF3B1F800C00CEA03069E4221D1830095
:101F90004FF00F0C0CFA03F7BC4305FA03FC4CEAB4
:101FA000040491F803C0BCF1280F05D100F1080C1E
:101FB00008FA0CF8C2F8148091F803C0BCF1480F7D
:101FC00007D100F1080C4FF0010808FA0CF8C2F82C
:101FD0001080401C0828CED35460BDE8F081024632
:101FE000002093680B400BB1012000E000207047F7
:101FF0000AB1016100E041617047000038B5354821
:102000004078022843D1334CA379E2796179207971
:1020100001F00AFCA379E2796179207902F0A4F851
:102020004FF49670FFF76BFE2B48224600905179D3
:1020300010790A23082201F0AFFF22465179107966
:102040000A23082202F090F84FF49670FFF757FE2B
:10205000A379E2796179207901F0E6FBA379E2794D
:102060006179207902F080F84FF49670FFF747FE0F
:102070000120214648700820C8710A20887108464E
:102080004079001F40B248711348886020E0114831
:10209000407801281CD111480078401E0F49087073
:1020A00001F0AEFB02F04CF84FF4FA70FFF727FE98
:1020B0000A4800780AA308221A210090282001F07B
:1020C00016FF02F03DF80120FFF725FE01F098FB16
:1020D00038BD00001C0000203E5D000813000020F9
:1020E00020582564000000000EB5344890F9040023
:1020F000C0F1480000EBC00101EB00103049098835
:1021000001EB40002E4908803DE02C4BDA795979EB
:102110001879032301F088FB28484079401C40B21D
:1021200026494871084680680C460090A379E279F8
:102130006179207901F030FF012220464079401D6D
:10214000214689790844C0B221460979CDE90102C6
:1021500000916479194DAD792C44E3B2174C247980
:10216000164DED792C44E2B2144C6479134DAD79DF
:102170002C44E1B2114C207901F085FD01F0E0FF23
:102180001A20FFF7BCFD0D4890F905003128BCDB93
:1021900001F036FB10E00BA308220021084601F0F5
:1021A000A6FE062005230090054802881021084657
:1021B00001F088FF01F0C4FFEDE700001C000020E3
:1021C0001000002047616D65204F76657221212146
:1021D0000000000070B5A7480078401CA5490870B1
:1021E0000846007802287DD100200870002463E0B2
:1021F0002B206043A049084441782B2060439E4A2D
:10220000115404EB44000830C1B2042303221046E9
:1022100001F00AFB01254BE02B206043964908445E
:10222000405D022805D02B2060430844405D05280E
:102230000CD104EB44020832D1B205EB4502521C2A
:10224000D0B20423032201F0EFFA24E02B206043F4
:1022500089490844405D03280BD104EB440208324D
:10226000D1B205EB4502D0B20423062201F0DCFA1C
:1022700011E02B20604380490844405D07280AD1C3
:1022800004EB44020832D1B205EB4502D0B204237C
:10229000062201F0C9FA2B20604377490144681CEB
:1022A000095C2B206043744A10444155681CC5B238
:1022B0002A2DB1DB601CC4B2122C99DB6F48007868
:1022C00000EBC0006E4901EB0011D1E902410A2286
:1022D00000232046FDF7EEFF01214A401A4306D1B4
:1022E000664800E087E00078401C644908700024DC
:1022F00060E06248007800EBC000614901EB00102B
:1023000000EBC401D1E900510A2200232846FDF761
:10231000D1FFD1B22B206043574A104480F82A10D5
:102320005648007800EBC000554901EB001000EB67
:10233000C401D1E900510A2200232846FDF7BAFF63
:102340004E4A127802EBC2024D4B03EB021202EB33
:10235000C40203C22B2060434749084490F82A0076
:10236000092809D100F0C8F800212B206043424A17
:10237000104480F82A101BE02B2060433E4908449B
:1023800090F82A00042809D100F0B6F800212B208B
:102390006043394A104480F82A1009E02B2060433A
:1023A0003549084490F82A00082801D1FFF79CFE1F
:1023B000601CC4B2122C9CDB3248FFF735FC50B1D4
:1023C00030480079C01E40B22E4908710846C078D6
:1023D000404240B2C8702B480C30FFF725FC50B18A
:1023E0002848007CC01E41B226480174C07B404290
:1023F00041B22448C1732448007805281AD12248E4
:10240000C078B8B9204C24791F4DED792C44E0B246
:102410001D4CA379E479A41CE2B21B4C617901F054
:1024200003FA2046017913480078401C081A40B28C
:10243000214608711448007B052819D11248C07B39
:10244000B0B9114C257CE47C2C44E0B20E4CA37C4A
:10245000E47CA41CE2B20C4C617C01F0E5F920465E
:10246000017C04480078401C081A41B220460174DF
:1024700070BD00000E000020501400201600002047
:1024800090000020280000204000002010B52021EE
:102490001648FFF7A4FD38B91548007820B9012087
:1024A00013490870052010BD80211048FFF797FDE3
:1024B00038B90F48007820B901200D49087006206E
:1024C000F1E720210948FFF78AFD01280CD180217E
:1024D0000648FFF784FD012806D105480078012849
:1024E00002D10020024908700020DCE7000C014006
:1024F0000600002000BFFEE7092816D1614949788F
:1025000039B901215F4A517077211171FF21D170D2
:10251000B6E05C49497B0029FAD1012259494A7346
:1025200077220A74FF22CA73AAE0042820D15649F0
:10253000497859B97721544A117154499160082159
:10254000D171042111700121517099E04E49497BEC
:102550000029DDD177224C490A744C4A4A6108228D
:10256000CA740421484A1173012247494A7387E01B
:10257000072804D10121464A5170D17080E0032818
:102580007ED144490978A1B90121424A11704249DA
:102590000979091D49B2D1703F494979491F49B2AA
:1025A000117111460979083949B2517101215170EF
:1025B00066E038498979B1B90121364A91713649C5
:1025C0000979091D4AB233494A7233494979491F89
:1025D0004AB230498A72897A08394AB22D49CA7298
:1025E0000122CA714CE02B49097BB1B90121294A6A
:1025F000117329490979091D4AB22649CA73264926
:102600004979491F4AB223490A74097C08394AB2F8
:1026100020494A7401224A7332E01E49897CB1B9CB
:1026200001211C4A91741C490979091D4AB21949B2
:102630004A7519494979491F4AB216498A75897DEF
:1026400008394AB21349CA750122CA7418E01149FF
:10265000097EA9B901210F4A11760F490979091D8F
:102660004AB20C49CA760C494979491F4AB209490C
:102670000A77097F08394AB206494A7701224A7621
:102680007047000028000020400000206D5D000819
:1026900058000020640000201C0000202DE9F843B1
:1026A000002600207849087000BF59E000207749D3
:1026B000087000244BE006EBC6004006000E74498B
:1026C000087000253AE07348007800EBC0007249BA
:1026D00001EB001000EBC4000A220023D0E90071D6
:1026E0003846FDF7E7FDD1B2684800782B22504309
:1026F0006A4A1044664A127881546648007800EBB2
:10270000C000654901EB001000EBC4000A22002361
:10271000D0E900713846FDF7CDFD5E4A127802EB34
:10272000C2025D4B03EB021202EBC40203C2584823
:102730000078401C56490870681CC5B2122DC2DBD7
:1027400052480078401C51490870601CC4B2122CD9
:10275000B1DB50480078401C4E490870701CC6B26E
:10276000022EA3DB00204949087000244BE006EB51
:10277000C6004006000E4649087000253AE045486C
:10278000007800EBC000444901EB001000EBC401ED
:10279000D1E900710A2200233846FDF78BFDD1B242
:1027A0003A4800782B2250433C4A1044384A127869
:1027B00081543848007800EBC000374901EB001025
:1027C00000EBC401D1E900710A2200233846FDF76D
:1027D00071FD304A127802EBC2022F4B03EB02125A
:1027E00002EBC40203C22A480078401C2849087042
:1027F000681CC5B2072DC2DB24480078401C234961
:102800000870601CC4B2122CB1DB002437E0002534
:1028100031E02B20604321490844405D02280DD15E
:10282000012004EB44020832D1B205EB45020090CE
:10283000D0B203231A4601F0DFF91AE02B206043DF
:1028400016490844405D032813D12B2060430144FE
:10285000681E085C03280CD0002004EB44020832F8
:10286000D1B205EB45020090D0B20323062201F05D
:10287000C3F9681CC5B22A2DCBDB601CC4B2122C74
:10288000C5DBBDE8F88300000E0000201500002025
:10289000140000201600002090000020501400209A
:1028A000014691F905000838032290FBF2F02B2233
:1028B0005043B64A024491F904000830032390FBC8
:1028C000F3F0105C90BB91F905000838032290FBEF
:1028D000F2F02B225043AD4A024491F90400401D0E
:1028E00090FBF3F0105C08BB91F905000838032257
:1028F00090FBF2F02B225043A44A024491F90400C9
:10290000801C90FBF3F0105C80B991F90500083849
:10291000032290FBF2F02B2250439C4A104491F981
:10292000042092FBF3F2805C00287DD091F9050031
:102930000838032290FBF2F02B225043934A0244C2
:1029400091F90400C01D032390FBF3F0105C0328F1
:1029500035D091F905000838032290FBF2F02B22C4
:1029600050438A4A024491F90400401D90FBF3F061
:10297000105C032823D091F905000838032290FB4E
:10298000F2F02B225043814A024491F90400801C4A
:1029900090FBF3F0105C032811D091F90500083882
:1029A000032290FBF2F02B225043784A024491F923
:1029B0000400401C90FBF3F0105C032801D10120BF
:1029C000704791F905000838032290FBF2F02B22A2
:1029D00050436E4A024491F90400C01D032390FB4A
:1029E000F3F0105C072837D091F90500083803226E
:1029F00090FBF2F02B225043644A024491F9040008
:102A0000401D90FBF3F0105C072825D091F90500DC
:102A10000838032290FBF2F02B2250435B4A024419
:102A200091F90400801C00E0AEE090FBF3F0105C34
:102A3000072811D091F905000838032290FBF2F025
:102A40002B225043514A024491F90400401C90FB50
:102A5000F3F0105C072801D10220B1E791F90500DD
:102A60000838032290FBF2F02B225043474A0244DD
:102A700091F904000830032390FBF3F0105C052863
:102A800034D091F905000838032290FBF2F02B2294
:102A900050433E4A024491F90400401D90FBF3F07C
:102AA000105C052822D091F905000838032290FB1C
:102AB000F2F02B225043354A024491F90400801C65
:102AC00090FBF3F0105C052810D091F90500083850
:102AD000032290FBF2F02B2250432C4A104491F930
:102AE000042092FBF3F2805C052801D1032067E704
:102AF00091F905000838032290FBF2F02B22504395
:102B0000224A024491F904000830032390FBF3F0B9
:102B1000105C062834D091F905000838032290FB98
:102B2000F2F02B225043194A024491F90400401D4F
:102B300090FBF3F0105C062822D091F905000838CC
:102B4000032290FBF2F02B225043104A024491F9E9
:102B50000400801C90FBF3F0105C062810D091F963
:102B600005000838032290FBF2F02B225043074A5D
:102B7000104491F9042092FBF3F2805C062801D105
:102B800004201DE700201BE7052019E75014002052
:102B900000B587B00121082001F07EFF012104204B
:102BA00001F07AFF0121084601F076FF48208DF8F8
:102BB0001B004FF2F000ADF8180003208DF81A004A
:102BC00006A92448FFF780F910208DF8170040F679
:102BD0000340ADF8140003208DF8160005A91D4828
:102BE000FFF772F910208DF813000002ADF8100005
:102BF00003208DF8120004A91748FFF765F90E218C
:102C00000120FFF741F90F210120FFF73DF94FF4B3
:102C10004040029001208DF80E0000208DF80C003D
:102C200008208DF80D0002A8FFF7E4F84FF4A0602B
:102C300000F0DCFD28208DF8040001208DF807004D
:102C40008DF805008DF8060001A800F097FD07B08B
:102C500000BD0000000C01400008014038B5FFF73E
:102C600015FC052813D16648807880B964484079FE
:102C700012386449087008460078002801DA0020FC
:102C8000087001205E49887000205F4908704FF489
:102C900000415E48FFF7A3F998BB594890F904003A
:102CA0003C2815DC564800F0D3FC012810D0012048
:102CB0005349C8700A46517910790A23032200F05B
:102CC000B3FD4F480079401C40B24D49087123E0E4
:102CD0004B4890F904003C280ADD494800F0B8FC54
:102CE000012805D0FFF776FA01204949087013E062
:102CF000434800F0ADFC01280ED100204449087083
:102D00000AE0FFE74FF400414048FFF768F9012867
:102D100002D100203E4908704FF400513B48FFF7B4
:102D20005EF9E0B9364890F90400002866DD3448C1
:102D300000F08EFC022861D0FF203149C8700A469D
:102D400051791279D21DD0B20A23032200F06CFD12
:102D50002B480079401E40B2294908714EE04FF4DB
:102D600080412A48FFF73BF9002847D1244890F9D1
:102D70000500234991F9061008440838032190FB07
:102D8000F1F02B214843234901441D4890F90400E8
:102D9000001D032290FBF2F0085C05282ED10124CF
:102DA0001CE0174DAB79EA796979287900F03CFD90
:102DB000284680680090AD792D1BEBB2104DEA7962
:102DC0006D792544E9B20E4D287901F0E5F801F05E
:102DD000B7F96420FEF793FF601CC4B2082CE0DB57
:102DE0000A20074908710D20487100F009FD01F023
:102DF0001FFB09480078401C0749087038BD0000D7
:102E00001C0000201700002018000020000C0140CA
:102E10000F00002050140020120000202DE9F04186
:102E20000446002594F9050094F906100844083872
:102E3000032190FBF1F02B214843FE49014494F912
:102E400004000830032290FBF2F0085CB0B994F95A
:102E5000050094F9061008440838032190FBF1F0AE
:102E60002B214843F349084494F9041091FBF2F1F3
:102E7000405C18B9A07808B90220A070A078012899
:102E80007ED16079401E40B260712046FFF708FD98
:102E90000546052D75D0012D74D1E7480088143002
:102EA000E549088094F905000A38032190FBF1F008
:102EB0002B214843DF49014494F90400001D0322FB
:102EC00090FBF2F0085C032810D194F905000A3851
:102ED000032190FBF1F02B214843D649014494F99A
:102EE0000400001D90FBF2F002220A5494F9050040
:102EF0000A38032190FBF1F02B214843CD490144CE
:102F000094F90400001D032290FBF2F0401E085CBF
:102F1000032811D194F905000A38032190FBF1F040
:102F20002B214843C349014494F90400001D90FB40
:102F3000F2F0401E02220A5494F905000A380321D7
:102F400090FBF1F02B214843BA49014494F9040065
:102F5000001D032290FBF2F0401C085C032815D1F1
:102F600094F905000A38032190FBF1F02B21484326
:102F7000B049014494F90400001D90FBF2F002E016
:102F8000ABE287E252E0401C02220A5494F90500A9
:102F90000A38032190FBF1F02B214843A549014455
:102FA00094F90400001D032290FBF2F0801C085CE1
:102FB000032811D194F905000A38032190FBF1F0A0
:102FC0002B2148439B49014494F90400001D90FBC8
:102FD000F2F0801C02220A5494F905000A380321F9
:102FE00090FBF1F02B2148439249014494F90400ED
:102FF000001D032290FBF2F0801E085C032811D113
:1030000094F905000A38032190FBF1F02B21484385
:103010008849014494F90400001D90FBF2F0801EE1
:1030200002220A540320FFF767FA2BE2042D7DD118
:10303000824840780228FAD194F905000A38032121
:1030400090FBF1F02B2148437A49014494F90400A4
:10305000001D032290FBF2F0085C06282BD194F9A6
:1030600005000A38032190FBF1F02B2148437149F8
:10307000014494F90400001D90FBF2F000220A5470
:1030800094F905000A38032190FBF1F000EB4000B1
:103090000830C6B294F90400001D90FBF1F000EB7B
:1030A000400067490978401AC7B204230322314619
:1030B000384600F0B9FB94F905000A38032190FB6B
:1030C000F1F02B2148435B49014494F90400001DB1
:1030D000032290FBF2F0401E085C06282FD194F9E1
:1030E00005000A38032190FBF1F02B214843514998
:1030F000014494F90400001D90FBF2F0401E0022F0
:103100000A5494F905000A38032190FBF1F000EB12
:1031100040000830C6B294F90400001D90FBF1F0A5
:10312000401E00EB40004649097800E0D7E0401A15
:10313000C7B2042303223146384600F075FB94F9E8
:1031400005000A38032190FBF1F02B21484339494F
:10315000014494F90400001D032290FBF2F0401C8E
:10316000085C06282DD194F905000A38032190FB4C
:10317000F1F02B2148432F49014494F90400001D2C
:1031800090FBF2F0401C00220A5494F905000A3822
:10319000032190FBF1F000EB40000830C6B294F937
:1031A0000400001D90FBF1F0401C00EB400024499E
:1031B0000978401AC7B2042303223146384600F08A
:1031C00033FB94F905000A38032190FBF1F02B2121
:1031D00048431849014494F90400001D032290FB60
:1031E000F2F0801C085C062836D194F905000A38F4
:1031F000032190FBF1F02B2148430E49014494F93F
:103200000400001D90FBF2F0801C00220A5494F987
:1032100005000A38032190FBF1F000EB4000083074
:10322000C6B294F90400001D90FBF1F0801C00EB85
:10323000400007E050140020100000201C00002077
:103240000E000020D1490978401AC7B20423032296
:103250003146384600F0E8FA94F905000A380321AF
:1032600090FBF1F02B214843C949014494F9040033
:10327000001D032290FBF2F0801E085C06282DD171
:1032800094F905000A38032190FBF1F02B21484303
:10329000BF49014494F90400001D90FBF2F0801E28
:1032A00000220A5494F905000A38032190FBF1F03A
:1032B00000EB40000830C6B294F90400001D90FBFA
:1032C000F1F0801E00EB4000B0490978401AC7B207
:1032D000042303223146384600F0A6FAD2E0022D3C
:1032E000FCD10720FFF708F9AA4890F90400401E16
:1032F000032190FBF1F000EB4000801E40B2A64994
:103300000871A44840790A3840B2487194F9050020
:103310000A38032190FBF1F02B2148439C490144DA
:1033200094F90400001D032290FBF2F0085C0728CA
:1033300010D194F905000A38032190FBF1F02B21FC
:1033400048439349014494F90400001D90FBF2F0B6
:1033500002220A5494F905000A38032190FBF1F087
:103360002B2148438A49014494F90400001D03229B
:1033700090FBF2F0401E085C072811D194F905007B
:103380000A38032190FBF1F02B2148438049014486
:1033900094F90400001D90FBF2F0401E02220A5432
:1033A00094F905000A38032190FBF1F02B214843E2
:1033B0007749014494F90400001D032290FBF2F0C8
:1033C000401C085C072811D194F905000A38032134
:1033D00090FBF1F02B2148436D49014494F904001E
:1033E000001D90FBF2F0401C02220A5494F90500E3
:1033F0000A38032190FBF1F02B2148436449014432
:1034000094F90400001D032290FBF2F0801C085C7C
:10341000072811D194F905000A38032190FBF1F037
:103420002B2148435A49014494F90400001D90FBA4
:10343000F2F0801C02220A5494F905000A38032194
:1034400090FBF1F02B2148435149014494F90400C9
:10345000001D032290FBF2F0801E085C072811D1AA
:1034600094F905000A38032190FBF1F02B21484321
:103470004749014494F90400001D90FBF2F0801EBE
:1034800002220A546079401C40B260710220A07090
:10349000BDE8F08194F9050040490978884212DCC2
:1034A00020213F48FEF79BFD58B93E48007840B9BF
:1034B00001203C49087039480078083837490870BD
:1034C00001E00220A0706379A6793344D9B2E27991
:1034D0002079012300F0A8F956E0A078022853D102
:1034E00094F9050094F9061008440838032190FB6C
:1034F000F1F02B2148432649014494F90400801D32
:10350000032290FBF2F0085C98B994F9050094F955
:10351000061008440838032190FBF1F02B214843A2
:103520001B49014494F90400801C90FBF2F0085CF4
:1035300018B1002017498870AAE716484079401C46
:1035400040B2144948710A465279521ED1B2114A0A
:1035500010790123082200F067F90E4890F9050060
:10356000362811DD01200B494870084600790F38D4
:1035700040B20871002048710A2088710820C87183
:1035800009488860FEF73AFD00BF81E70E00002081
:10359000501400201C0000205800002017000020BC
:1035A000000C0140180000203E5D0008FFF776F88F
:1035B00038E001F01BFE01F0FBFC1B4801F0F2FAC1
:1035C00019480C3001F0EEFA184801F0EBFA1748F0
:1035D0000C3001F0E7FA164801F0E4FA154801F062
:1035E00019FE1448801D01F015FE12480C3001F040
:1035F00011FE1048123001F00DFE0E48183001F097
:1036000009FE00F09DFD0C48007858B900F0F8F86C
:1036100007E00AA308220021084600F068FC00F039
:103620008FFDF6E7C5E700002800002040000020DD
:1036300058000020640000201300002047616D65E1
:10364000204F7665722121210000000000BFFEE7B7
:10365000014691F90500C01F032290FBF2F02B22D6
:103660005043444A024491F90400401E032390FB56
:10367000F3F0105C90BB91F90500001F032290FB52
:10368000F2F02B2250433B4A024491F90400401EC1
:1036900090FBF3F0105C08BB91F90500401E03227B
:1036A00090FBF2F02B225043324A024491F904007D
:1036B000401E90FBF3F0105C80B991F90500401CAE
:1036C000032290FBF2F02B2250432A4A024491F944
:1036D0000400401E90FBF3F0105C08B1022070471C
:1036E00091F90500C01F032290FBF2F02B225043FA
:1036F000204A024491F904000930032390FBF3F0BF
:10370000105C90BB91F90500001F032290FBF2F0C2
:103710002B225043174A024491F90400093090FBD0
:10372000F3F0105C08BB91F90500401E032290FBEA
:10373000F2F02B2250430F4A024491F90400093061
:1037400090FBF3F0105C80B991F90500401C032256
:1037500090FBF2F02B225043064A024491F90400F8
:10376000093090FBF3F0105C08B10120B7E700BF0F
:10377000B5E70000501400207047000070B500212C
:1037800000230F22C47804B3154C246804F4E064C9
:10379000C4F5E064210AC1F10403CA40447804FA84
:1037A00003F184781440214309010E4C0678A15599
:1037B000047804F01F050124AC4005786D11AD00BC
:1037C00005F1E025C5F8004109E0047804F01F0583
:1037D0000124AC40044D0678761145F8264070BDB2
:1037E0000CED00E000E400E080E100E0024901436C
:1037F000024A1160704700000000FA050CED00E07D
:1038000000200CE0002106E00022064B03EBC01371
:103810005A544A1CD1B28029F6DB421CD0B2082887
:10382000F0DB7047501000202DE9F04304460D46B0
:1038300016461F467F2C01DDBDE8F0833F2D00DDDD
:10384000FAE7A119802902DDC4F18001CEB2E9199D
:10385000402902DDC5F14001CFB2284630E02346C1
:1038600029E04FEAE07C00EB5C7C4FEAEC0CDFF8EF
:103870005C8008EBCC1C1CF803C002464FEAE078E1
:1038800000EB58784FEAE808A0EBC8094FF00108B0
:1038900008FA09F82CEA080C01464FEAE07800EB38
:1038A00058784FEAE808DFF8249009EBC81808F8C0
:1038B00003C0591CCBB2A1199942D2DC411CC8B239
:1038C000E9198142CBDC00BFB6E7000050100020B0
:1038D0002DE9F04F07460E4691469A46C9F1010B75
:1038E00000254C463219D1B27A19D0B200F05CF9F9
:1038F000321BD1B27A1BD0B200F056F97219D1B294
:103900003A19D0B200F050F9721BD1B23A1BD0B2C2
:1039100000F04AF9BAF1000F0FD060420FFA80F8B8
:1039200009E006EB0800C1B2384600F03DF908F1A5
:1039300001000FFA80F8A045F3DB75E0681C05B2C2
:10394000BBF1000F05DA6800401C58440FFA80FBF9
:1039500007E0601E04B2281B4000401C58440FFAC8
:1039600080FB3219D1B27A19D0B200F01DF9721968
:10397000D1B23A19D0B200F017F9321BD1B27A1B8A
:10398000D0B200F011F9721BD1B23A1BD0B200F0E4
:103990000BF9321BD1B27A19D0B200F005F9721BC3
:1039A000D1B23A19D0B200F0FFF83219D1B27A1B75
:1039B000D0B200F0F9F87219D1B23A1BD0B200F0CF
:1039C000F3F8BAF1000F2FD060420FFA80F811E03F
:1039D00006EB0802D1B27A19D0B200F0E5F806EB96
:1039E0000802D1B27A1BD0B200F0DEF808F1010073
:1039F0000FFA80F8A045EBDB68420FFA80F811E07F
:103A000006EB0802D1B23A1BD0B200F0CDF806EBBB
:103A10000802D1B23A19D0B200F0C6F808F101009C
:103A20000FFA80F8A845EBDBA54287DBBDE8F08FF5
:103A30002DE9FF4F86B0069F079EDDF82080DDF858
:103A400024900020019000904E450FD1474502DDA3
:103A5000BA464746D0463C4605E0F1B2E0B200F037
:103A6000A3F8601C04B24445F7DD99E047450FD147
:103A70004E4502DDB2464E46D146354605E0E9B236
:103A8000F8B200F091F8681C05B24D45F7DD87E00B
:103A9000474505DDBA464746D046B2464E46D14672
:103AA0004E4507DD704206B2C9F100000FFA80F9F9
:103AB00001200190A9EB0600A8EB0701884207DD71
:103AC000BA4637465646C246C846D14601200090FF
:103AD000A8EB070000B20590A9EB06000FFA80FBE7
:103AE0004FEA4B0000B203900598ABEB000040009A
:103AF00000B202900598C0EB4B0000B204903C4627
:103B00003546019838B1009828B16242D1B2E8B286
:103B100000F04AF812E0019828B16A42D1B2E0B24E
:103B200000F042F80AE0009820B1E1B2E8B200F0FB
:103B30003BF803E0E9B2E0B200F036F82EE0601C9A
:103B400004B20498002805DADDE90310084400B245
:103B5000049006E0681C05B202990498084400B27B
:103B60000490019838B1009828B16242D1B2E8B20D
:103B700000F01AF812E0019828B16A42D1B2E0B21E
:103B800000F012F80AE0009820B1E1B2E8B200F0CB
:103B90000BF803E0E9B2E0B200F006F84445CEDBF2
:103BA0000AB0BDE8F08F000070B503467F2B00DD42
:103BB00070BD3F2900DDFBE7CC1701EB5474E41026
:103BC0000C4D05EBC414E45C0A46CD1701EB5575AA
:103BD000ED10A1EBC5060125B5402C430846CD17D5
:103BE00001EB5575ED10034E06EBC515EC5400BF07
:103BF000DEE70000501000202DE9F04705460E4694
:103C000017469846DDF820A0BAF1000F24D12C46C3
:103C10000CE031462046FFF7C7FF06EB0800401EC8
:103C2000C1B22046FFF7C0FF601CC4B2E819A04231
:103C3000EFDC34460BE021462846FFF7B5FFE919D3
:103C4000491EC8B22146FFF7AFFF601CC4B206EBA5
:103C50000800A042EFDC14E02C460FE0B14607E07C
:103C600049462046FFF7A0FF09F1010000F0FF09D7
:103C700006EB08004845F3DC601CC4B2E819A0421A
:103C8000ECDCBDE8F0872DE9FF4F87B014461D46F8
:103C9000DDE91467DDF81C80DDF82090DDF81C807C
:103CA000CDF81880DDF82090CB46DDF81C80ADF80B
:103CB0000C80ADF80E40ADF81060DDF82090ADF846
:103CC0000490ADF80650ADF80870169890B92B46E0
:103CD0002246DDE90701FFF7ABFE3B463246DDE950
:103CE0000701FFF7A5FE3B46324629462046FFF76F
:103CF0009FFE39E0444500DAA046464500DAB0466A
:103D00004D4500DAA9464F4500DAB9460698844287
:103D100000DD06940698864200DD06965D4500DDCE
:103D2000AB465F4500DDBB46C2461AE0CDF81490B5
:103D300010E00598534601AA03A90090032000F063
:103D400090FA18B150460599FFF72EFF0598401CD0
:103D5000C0B2059005985845EBDD0AF1010000F06E
:103D6000FF0A06988245E1DD0BB0BDE8F08F000048
:103D700038B5002406E0002500E06D1CB5F57A7F1B
:103D8000FBD3641CB4F57A7FF5D30121082000F041
:103D900083FE14208DF8030003208DF802004FF4F9
:103DA0008070ADF8000069460848FEF78DF84FF4C2
:103DB0000070ADF8000069460448FEF785F8012060
:103DC00000F010FA012000F019FA38BD000C014093
:103DD00070B50546002411E080212141294009B138
:103DE000012100E00021084600F008FA012000F05F
:103DF000F9F9002000F0F6F9601CC4B2082CEBDBE6
:103E0000012000F0EFF9002000F0ECF970BD10B5D2
:103E1000012000F0F3F9012000F0E4F9002000F0A7
:103E2000EDF9002000F0DEF910BD10B5002000F023
:103E3000E5F9012000F0D6F9012000F0DFF910BD0E
:103E400010B5FFF795FFAE2000F0E4F9D52000F0A3
:103E5000E1F9802000F0DEF9A82000F0DBF93F2036
:103E600000F0D8F9D32000F0D5F9002000F0D2F905
:103E7000402000F0CFF9A12000F0CCF9C82000F0DC
:103E8000C9F9DA2000F0C6F9122000F0C3F9812048
:103E900000F0C0F9CF2000F0BDF9D92000F0BAF948
:103EA000F12000F0B7F9DB2000F0B4F9302000F089
:103EB000B1F9A42000F0AEF9A62000F0ABF98D20F6
:103EC00000F0A8F9142000F0A5F9AF2000F0A2F945
:103ED000FFF796FC00F034F910BD10B50246012042
:103EE00000E050430B1EA1F10101FAD110BD0FB447
:103EF00070B58AB005460E46144612A8019002A875
:103F0000019A1199FCF74EFA00200190234602AA6B
:103F10003146284600F0FCF80AB070BC5DF814FB8E
:103F200070B505460C4645F0B00000F073F910215D
:103F300041EA141000F06EF904F00F0000F06AF985
:103F400070BD0000F8B506460F4614461D46082D04
:103F50000CD1A4F120000E4901EB0010102308221F
:103F600039460090304600F017F80FE0062D0DD1CD
:103F7000A4F1200000EB4000064901EB40000823BB
:103F8000062239460090304600F006F8F8BD0000E1
:103F9000F8530008E85900082DE9F04707460C4699
:103FA00090469946DDF820A07F2F01DDBDE8F0871F
:103FB0003F2C00DDFAE74B46424621463846FFF7E4
:103FC00033FC002570E0002669E0B8197F2800DD89
:103FD00067E0E11704EB517105EBE101072900DD12
:103FE000E4E72046E21704EB527205EBE202344BA1
:103FF00003EBC212BB19D25C2146E31704EB5373E7
:10400000DB10A4EBC30305FB086C1AF80CC00CFA18
:1040100003FC42EA0C02E31704EB537305EBE303E2
:10402000DFF89CC00CEBC31307EB060C03F80C2065
:10403000E11704EB517105EBE101491C072900DD93
:104040002BE02046E21704EB527205EBE202521C11
:104050001B4B03EBC212BB19D25C2146E31704EBE6
:104060005373DB10A4EBC303C3F1080305FB086C17
:104070001AF80CC04CFA03FC42EA0C02E31704EBFA
:10408000537305EBE3035B1CDFF834C00CEBC31385
:1040900007EB060C03F80C2000BF701CC6B24645A7
:1040A00093DB00BF681CC5B2A9F10100C11700EB8A
:1040B0005171012202EBE101A94284DC00BF75E7E6
:1040C000501000202DE9F0470646894617461D4648
:1040D000DDF82080002417E0281B411E0A20FFF78E
:1040E000FCFEB7FBF0F00A21B0FBF1F201FB12007D
:1040F00000F1300A04FB0861C8B243465246494603
:10410000FFF720FF601CC4B2AC42E5DBBDE8F087DE
:104110002DE9F0410646884615461F46002409E071
:104120002A5D04FB0761C8B23B464146FFF70AFF20
:10413000601CC4B2285D0028F2D1BDE8F081000007
:1041400010B500240BE000212046FFF7E9FE0549E9
:1041500001EBC410802100F06DF8601CC4B2082C83
:10416000F1DB10BD501000202DE9F04105460C4652
:10417000174698467F2D01DDBDE8F0813F2C00DD1C
:10418000FAE7E819802802DDC5F18000C7B204EB28
:104190000800402803DDC4F1400000F0FF0820467D
:1041A000E11704EB5171C1F3C7060CE02946304614
:1041B000FFF7B6FE0A4901EBC6114819394600F06F
:1041C00039F8701CC6B204EB0801481EC11700EB99
:1041D0005171012202EBE101B142E7DC00BFCBE704
:1041E0005010002010B5044622464FF4807102485A
:1041F000FDF7FEFE10BD0000000C014010B50446A6
:1042000022464FF400710248FDF7F2FE10BD000097
:10421000000C014010B50446FFF7F9FD7820FFF7C8
:10422000D7FD0020FFF7D4FD2046FFF7D1FDFFF7B3
:10423000FCFD10BD70B505460E46FFF7E8FD782081
:10424000FFF7C6FD4020FFF7C3FD002404E0285D12
:10425000FFF7BEFD601CC4B2B442F8DBFFF7E5FD1A
:1042600070BD2DE9F04305460C461F46079E4FF0F2
:10427000000C00216B1E34E032F91100B04201DD68
:10428000012000E0002032F91380B04502DD4FF03C
:10429000010801E04FF0000840451FD034F9130039
:1042A00034F91180A0EB080032F91180A6EB080860
:1042B00000FB08F032F9138032F91190A8EB0908DD
:1042C00090FBF8F034F911804044B84206DDBCF1AF
:1042D000000F01D1012000E0002084460B46481C5D
:1042E00001B2A942C8DB0CF0FF00BDE8F083024632
:1042F00092F9040092F90730184491F90430984279
:104300001ADB91F9040091F90730184492F904304E
:10431000984211DB92F9050092F90630184491F9A0
:104320000530984208DB91F9050091F906301844F0
:1043300092F90530984201DA00207047107850B9A0
:1043400092F9050092F90630184491F90530984227
:1043500001D10220F1E70120EFE7000010B504468B
:1043600094F90500801E032190FBF1F02B214843B6
:104370002D49014494F90400801D032290FBF2F0C2
:10438000085CA0B994F90500801E032190FBF1F0B0
:104390002B2148432449084494F9041091FBF2F17D
:1043A000405C20B9A07810B90220A0703AE0A07853
:1043B000022837D194F9050094F90610084408380A
:1043C000032190FBF1F02B2148431749014494F954
:1043D0000400801D032290FBF2F0085C98B994F968
:1043E000050094F9061008440838032190FBF1F009
:1043F0002B2148430C49014494F90400801C90FB94
:10440000F2F0085C10B10020A07010BD6079401C73
:1044100040B260716279521ED1B220790123082224
:10442000FFF702FA00BFF0E75014002070470000C9
:1044300010B5FE480078022805D11120FC4908700B
:10444000FEF72CF910BD0020F9490870F948FA4927
:104450000860FA49FA48F84A1268C2E90010F648BA
:1044600000680830F4490860F448F549F24A1268D7
:1044700003C2F14800680830EF490860EF49F0488E
:10448000ED4A1268C2E90010EB4800680830EA49BA
:104490000860EA48EA49E84A126803C2E648006848
:1044A0000830E5490860E549E548E34A1268C2E991
:1044B0000010E14800680830DF490860E149E2483F
:1044C000DD4A1268C2E90010DB4800680830DA49AA
:1044D0000860DA48DA49D84A126803C2D648006848
:1044E0000830D5490860D549D548D34A1268C2E991
:1044F0000010D14800680830CF490860CF49D04843
:10450000CD4A1268C2E90010CB4800680830CA4999
:104510000860CA48CA49C84A126803C2C648006847
:104520000830C5490860C549C548C34A1268C2E990
:104530000010C14800680830BF490860C348C2493C
:10454000BD4A126803C2BC4800680830BA49086016
:10455000BA48BB49B84A126803C2B7480068083075
:10456000B5490860B549B648B34A1268C2E90010B7
:10457000B14800680830B0490860B049B048AE4A58
:104580001268C2E90010AC4800680830AA49086007
:10459000AA49AB48A84A1268C2E90010A6480068B8
:1045A0000830A5490860A548A549A34A126803C276
:1045B000A14800680830A0490860A549A5489E4A5E
:1045C0001268C2E900109B4890309B4908609B48E4
:1045D0009B49994A126803C2974800680830964977
:1045E000086096489649944A126803C29248006847
:1045F000083091490860914891498F4A126803C276
:104600008D48006808308C4908608C488C498A4A7B
:10461000126803C2884800680830874908608749E3
:104620008748854A1268C2E900108348006808304C
:1046300081490860884989487F4A1268C2E90010A8
:104640007D48006808307C4908607C497C487A4A8B
:104650001268C2E90010784800680830764908609E
:1046600076487749744A126803C273480068083074
:1046700071490860714972486F4A1268C2E90010B6
:104680006D48006808306C4908606C496C486A4A9B
:104690001268C2E90010684800680830664908607E
:1046A00066496748644A1268C2E9001062480068B7
:1046B000083061490860684968485F4A1268C2E981
:1046C00000105D48006808305B4908605B485C4941
:1046D000594A126803C258480068083056490860B1
:1046E00056495748544A1268C2E9001052480068B7
:1046F000083051490860514851494F4A126803C275
:104700004D48006808304C4908604C494C484A4ABA
:104710001268C2E90010484800680830464908603D
:1047200046484749444A126803C243480068083073
:1047300041490860464947483F4A1268C2E90010AB
:1047400047483D4908603D483D493B4A126803C21D
:104750003948006808303849086038493848364ACE
:104760001268C2E900103448006808303249086015
:1047700032483349304A126803C22F480068083073
:104780002D4908602D492E482B4A1268C2E90010B5
:104790002948006808302849086028482849264ADE
:1047A000126803C22448006808302349086023497E
:1047B0002348214A1268C2E900101F4800680830E7
:1047C0001D4908601D491E481B4A1268C2E90010B5
:1047D0001948006808301849086018491848164AEE
:1047E0001268C2E9001014480068083012490860D5
:1047F00012491348104A1268C2E900100E480068B6
:1048000008300D4908600D480D490B4A126803C273
:104810000948006808300849086008490848064AFD
:104820001268C2E90010044800681BE01200002072
:10483000160000209000002088000020000064A7DF
:10484000B3B6E00D806A5EAD22E3E10D907363AD17
:10485000AAAAA6C180302117282597C1BED4E00D91
:10486000B001002008308349086083498348814AA9
:104870001268C2E900107F48006808307D4908606E
:104880007D487E497B4A126803C27A480068083036
:10489000784908607A487B49764A126803C27548AD
:1048A000006808307349086077497648714A126891
:1048B000C2E900106F48006808306E49086072490C
:1048C00070486C4A1268C2E900106A4800680830F3
:1048D000684908606C496B48664A1268C2E9001072
:1048E0006448006808306349086068496848614A5C
:1048F0001268C2E9001067485E4908605E485F4977
:104900005C4A126803C25B48006808305949086075
:1049100059495A48574A1268C2E900105548006878
:1049200008305449086054495448524A1268C2E950
:1049300000105048006808304E4908604E484F4902
:104940004C4A126803C24B48006808304949086065
:1049500049494A48474A1268C2E900104548006878
:1049600008304449086044484449424A126803C236
:104970004048006808303F4908603F483F493D4A89
:10498000126803C23B48006808303A4908603A4957
:104990003A48384A1268C2E90010364800680830C0
:1049A0003449086034493548324A1268C2E9001077
:1049B0003048006808302F4908602F492F482D4A99
:1049C0001268C2E900102B480068083029490860C5
:1049D00029482A49274A126803C226480068083035
:1049E0002449086024482549224A126803C2214804
:1049F000006808301F4908601F4820491D4A126896
:104A000003C21C48006808301A4908601A491B484C
:104A1000184A1268C2E900101648006808301549A3
:104A2000086015491548134A1268C2E90010114878
:104A3000006808300F4908600F4810490D4A126895
:104A400003C20C48006808300A4908600A490B484C
:104A5000084A1268C2E90010064800680830054993
:104A600008600A480A49034A126803C2FDF716FEA5
:104A700000BFE7E488000020000064A7B3B6E00DA3
:104A8000CCD8F1F0B0D1E70D2804F2F0AAAAA6C163
:104A9000803021174002002029B1064A9269024362
:104AA000044B9A6104E0034A92698243014B9A6184
:104AB0007047000000100240704710B500F002F887
:104AC00010BD00000CB50020019000903348006834
:104AD00040F480303149086000BF3048006800F47D
:104AE000003000900198401C0190009818B901987E
:104AF000B0F5A06FF1D12948006800F4003010B182
:104B00000120009001E0002000900098012843D18E
:104B10002348006840F010002149086008460068FA
:104B200020F0030008600846006840F002000860BA
:104B30001A48406819494860084640684860084675
:104B4000406840F4806048600846406820F47C106B
:104B500048600846406840F4E8104860084600682D
:104B600040F08070086000BF0C48006800F00070E2
:104B70000028F9D00948406820F003000749486040
:104B80000846406840F00200486000BF03484068A3
:104B900000F00C000828F9D10CBD00000010024004
:104BA00000200240F8B50446607800B9F8BD204600
:104BB000FFF7D4FB94F90500C01F032190FBF1F02F
:104BC0002B214843F149014494F9040094F907204A
:104BD0001044401CEE4A12781044032290FBF2F07D
:104BE000085CE0BB94F9050094F906100844093804
:104BF000032190FBF1F02B214843E449014494F94F
:104C0000040094F907201044401CE14A1278104433
:104C1000032290FBF2F0085C08BB94F90500C01F6A
:104C2000032190FBF1F02B214843D849084494F923
:104C30000410D74A1278891A032291FBF2F1405CE2
:104C400068B994F9050094F906100844093803215D
:104C500090FBF1F02B214843CC49084400E009E0E7
:104C600094F90410CA4A1278891A032291FBF2F1CE
:104C7000405C70B12078052807D100206070617910
:104C8000207906231A46FEF7CFFDE078404240B275
:104C9000E07094F90500C01F032190FBF1F02B2177
:104CA0004843BA49014494F90400B94A1278801A79
:104CB000801C032290FBF2F0085C58B394F90500C5
:104CC000C01F032190FBF1F02B214843AF49014461
:104CD00094F9040094F907201044AD4A1278104466
:104CE000401E032290FBF2F0085C98B10020607037
:104CF000A679B61CF3B2E679F61CF2B26679761E96
:104D0000F1B22679761EF0B2FEF78EFD7720207183
:104D1000332060719F480078F0B194F90300401C83
:104D200070B92279E6793244921ED0B2A3796179C2
:104D30000322FEF779FD2079801E40B2207122E027
:104D4000E07801281FD1A37961792279521ED0B26F
:104D50000122FEF769FD16E02279E6793244921EBF
:104D6000D0B2A37961790422FEF75EFDA37961795F
:104D70002279521ED0B20222FEF756FD2079E17848
:104D8000084440B22071607838B1A0680090A379DF
:104D9000E27961792079FFF7FFF821467E48FFF735
:104DA000A6FA0546002D26D02078012824D11DB36F
:104DB0007A48794988600C20887108464079001F3C
:104DC000774908700120744988700A20C871022050
:104DD0004870002060700120E070A679B61CF3B224
:104DE000E679B61CF2B26679761EF1B22679761EA5
:104DF000F0B2FEF719FD65E02078042820D1022DDD
:104E00001ED1A379E679B61CF2B261792679761EB5
:104E1000F0B2FEF709FD2079401F40B22071052055
:104E200020700620E0710020E0705E48A0605A48C3
:104E3000407912385A49087001205749887041E07A
:104E40002078052809D145B15748008814305649C3
:104E500008805148C078E07034E0012D13D1A37967
:104E6000E679761CF2B261792079FEF7DDFC2079D3
:104E70004949C97801EB810100EB810040B2207102
:104E8000FDF7BCF81EE0022D1CD147480088143005
:104E900045490880A379E679B61CF2B26179267992
:104EA000761EF0B2FEF7C0FC002060707720207103
:104EB0003320607138484079093839490870012039
:104EC0003549887094F90400032803DB94F9040041
:104ED000782813DD00206070A679B61CF3B2E6795D
:104EE000F61CF2B26679761EF1B22679761EF0B221
:104EF000FEF79AFC77202071332060712078052816
:104F000042D1E078F0B321462848FFF7F0F9054692
:104F1000C5B1264EB679B61CF3B2244EF679B61C4E
:104F2000F2B2224E7679761EF1B2204E3679761E96
:104F3000F0B2FEF779FC00201C4948707720087118
:104F400033204871214619480C30FFF7D0F9054647
:104F5000C5B1164EB67CB61CF3B2144EF67CB61C28
:104F6000F2B2124E767C761EF1B2104E367C761E70
:104F7000F0B2FEF759FC00210C484173772101740F
:104F8000332100E000E0417400BF0FE65014002020
:104F90000E0000200F0000201C0000204E5D0008C5
:104FA00017000020735D000810000020280000207A
:104FB00038B5002410E12B2060438949085C40B9D2
:104FC00004EB4400C01DC1B2042303220020FEF7FD
:104FD0002BFC2B206043824908444078022805D0EE
:104FE0002B2060430844407805281CD104EB440280
:104FF0000832D1B27B4A1278C2F10602D0B2042341
:105000000122FEF711FC012004EB44020832D1B268
:10501000744A00901278C2F10302D0B20423032232
:10502000FEF7EAFD22E02B2060436D4908444078FA
:1050300006281BD104EB44020832D1B2694A127827
:10504000C2F10602D0B204230222FEF7EDFB66484D
:1050500004EB44020832D1B2624A00901278C2F1E5
:105060000302D0B204230322FEF796FF0225AEE02E
:105070002B2060435A490844405D022805D02B206C
:1050800060430844405D05281FD104EB4402083208
:10509000D1B205EB4502534B1B78D21AD21CD0B2C9
:1050A00004230122FEF7C0FB012004EB4402083276
:1050B000D1B205EB45024B4B00901B78D21AD0B20F
:1050C00004230322FEF798FD7FE02B206043444930
:1050D0000844405D06281FD104EB44020832D1B2D7
:1050E00005EB45023F4B1B78D21AD21CD0B20423E9
:1050F0000222FEF799FB3C4804EB44020832D1B28D
:1051000005EB4502374B00901B78D21AD0B204232E
:105110000322FEF741FF58E02B206043304908444A
:10512000405D032825D12B2060430144681C085CA6
:1051300003281ED104EB44020832D1B205EB45022C
:10514000284B1B78D21AD0B204230922FEF76CFB3D
:10515000002004EB44020832D1B205EB4502214B9A
:1051600000901B78D21AD0B204230722FEF744FD28
:105170002BE02B2060431A490844405D072824D1C6
:105180002B2060430144681C085C07281DD104EBF8
:1051900044020832D1B205EB4502124B1B78D21AF9
:1051A000D0B204230922FEF73FFB002004EB4402A7
:1051B0000832D1B205EB45020A4B00901B78D21A97
:1051C000D0B204230722FEF717FD681CC5B22A2DB2
:1051D000FFF64EAF601CC4B2122CFFF6ECAE38BD29
:1051E000501400200E000020795D000838B5FDF74E
:1051F00035FD0748FDF712FE05488068044C009015
:10520000A379E27961792079FEF7C6FE38BD000006
:105210001C00002070B504460025207800B970BD40
:105220006078012814D12079401E40B22071217984
:10523000E278521ED0B203231A46FEF7F5FA94F92B
:10524000040094F90510884231DC022060702EE0E1
:10525000607802282BD12279521ED1B2E278521EF8
:10526000D0B202230322FEF7DFFA2079401C40B2BD
:10527000207194F90400401F032190FBF1F02B21D1
:1052800048431749084494F90310032291FBF2F1B3
:10529000405C60B10020607020702279921ED1B213
:1052A000E278521ED0B203231A46FEF7BDFA94F9F3
:1052B00002000C490978884203D0E078401E40B2D1
:1052C000E0700848007840B2A070207828B12179B9
:1052D000E07801231A46FEF7FBFA00BF9FE70000C3
:1052E000501400200E0000207047000010B5134835
:1052F000006840F001001149086008464068104904
:1053000008400E494860084600680E4908400B49AD
:1053100008600846006820F480200860084640685D
:1053200020F4FE0048604FF41F008860FFF7C5FBC3
:105330004FF000600449086010BD000000100240FA
:105340000000FFF8FFFFF6FE08ED00E000BFFEE7FB
:10535000490050EAC12018BF04204A0D18BF40F090
:10536000010040F2FF72B2EB515F08BF40F0020053
:10537000012808BF0520704730380A2801D20120D3
:10538000704700207047FDF703FCFEF759FD01E070
:10539000FEF70CF9FCE7000010B500290AD00878E8
:1053A000002807D005487844FBF70EF8002801D004
:1053B000002010BD0248784410BD0000F20A000031
:1053C000EA0A000010B500290AD00878002807D0A2
:1053D00005487844FAF7F8FF002801D0002010BDF6
:1053E0000248784410BD0000E20A0000DA0A00001A
:1053F000FBF757BCFBF78CBD00000000000000006D
:105400000000000000000000000000F800000000A4
:10541000000000333000000000160E00160E0000E1
:10542000000000000000000040C07840C07840004C
:10543000043F04043F040400007088FC08300000AE
:10544000001820FF211E0000F008F000E018000006
:1054500000211C031E211E0000F0088870000000BF
:105460001E21232419272110000000160E00000021
:105470000000000000000000000000E0180402002E
:10548000000000071820400000020418E00000009F
:105490000040201807000000404080F0804040009D
:1054A0000202010F01020200000000F000000000F3
:1054B0000101011F010101000000000000000000C7
:1054C00000B07000000000000000000000000000BC
:1054D00000010101010101010000000000000000C5
:1054E0000030300000000000000000008060180460
:1054F000006018060100000000E010080810E0003D
:10550000000F102020100F00001010F80000000005
:105510000020203F2020000000700808088870004C
:1055200000302824222130000030088888483000CC
:105530000018202020110E000000C02010F80000EC
:1055400000070424243F240000F808888808080085
:105550000019212020110E0000E01088881800009A
:10556000000F112020110E0000380808C83808006C
:105570000000003F000000000070880808887000EC
:10558000001C222121221C0000E010080810E0006D
:105590000000312222110F00000000C0C0000000F6
:1055A0000000003030000000000000C0C00000001B
:1055B000000080B070000000000080402010080053
:1055C00000010204081020004040404040404000DC
:1055D00004040404040404000008102040800000B7
:1055E0000020100804020100007048080808F000BC
:1055F0000000003036010000C030C828E810E0008C
:105600000718272423140B000000C038E000000016
:10561000203C23020227382008F888888870000080
:10562000203F202020110E00C03008080808380054
:10563000071820202010080008F808080810E000CB
:10564000203F202020100F0008F88888E80810006C
:10565000203F20202320180008F88888E808100040
:10566000203F200003000000C03008080838000078
:1056700007182020221E020008F808000008F80879
:10568000203F210101213F20000808F80808000000
:105690000020203F2020000000000808F808080033
:1056A000C08080807F00000008F888C028180800AB
:1056B000203F20012638200008F8080000000000E4
:1056C000203F20202020300008F8F800F8F80800DB
:1056D000203F003F003F200008F830C00008F808D5
:1056E000203F200007183F00E01008080810E000E5
:1056F0000F10202020100F0008F808080808F000FC
:10570000203F210101010000E01008080810E0001E
:105710000F18242438504F0008F8888888887000B3
:10572000203F2000030C3020007088080808380053
:105730000038202121221C00180808F80808180049
:105740000000203F2000000008F808000008F808CA
:10575000001F202020201F000878880000C838087B
:10576000000007380E010000F80800F80008F800F3
:10577000033C0700073C030008186880806818088D
:1057800020302C03032C30200838C800C83808000B
:105790000000203F2000000010080808C83808005A
:1057A0002038262120201800000000FE02020200FE
:1057B0000000007F40404000000C30C000000000AE
:1057C000000000010638C00000020202FE000000D6
:1057D000004040407F000000002010080408102016
:1057E00000000000000000000000000000000000B9
:1057F000808080808080808000020408000000009B
:105800000000000000000000000080808080000098
:105810000019242222223F2008F800808000000086
:10582000003F112020110E00000000808080000049
:10583000000E112020201100000000808088F80058
:10584000000E112020103F2000008080808000008A
:10585000001F222222221300008080F088888818EE
:105860000020203F202000000000808080808000F9
:10587000006B94949493600008F80080808000008E
:10588000203F210000203F20008098980000000069
:105890000020203F20200000000000809898000099
:1058A00000C08080807F000008F8000080808000B9
:1058B000203F24022D302000000808F800000000DE
:1058C0000020203F20200000808080808080800099
:1058D000203F20003F20003F0080800080800000AB
:1058E00000203F2100203F200000808080800000B9
:1058F000001F202020201F008080008080000000EA
:1059000080FFA12020110E00000000808080800018
:10591000000E112020A0FF80808080008080800009
:1059200020203F2120000100000080808080800036
:105930000033242424241900008080E080800000AB
:105940000000001F202000008080000000808000F8
:10595000001F202020103F20808080000080808059
:1059600000010E30080601008080008000808080E9
:105970000F300C030C300F0000808000808080000E
:105980000020312E0E312000808080000080808039
:1059900080818E70180601000080808080808000E9
:1059A0000021302C2221300000000000807C020207
:1059B00000000000003F404000000000FF00000029
:1059C00000000000FF0000000002027C80000000D8
:1059D0000040403F00000000008040408000008008
:1059E00000000000000101000000000000000000B5
:1059F000002F000000000700070000147F147F1430
:105A000000242A7F2A1200231308646200364955B5
:105A1000225000000007000000001C22410000008E
:105A200041221C000014083E08140008083E080823
:105A3000000000A06000000808080808000060607E
:105A40000000002010080402003E5149453E0000BD
:105A5000427F4000004261514946002141454B319F
:105A6000001814127F10002745454539003C4A496B
:105A700049300001710905030036494949360006DD
:105A80004949291E00003636000000005636000045
:105A900000081422410000141414141400004122C0
:105AA0001408000201510906003E4955592E007C98
:105AB0001211127C007F49494936003E4141412282
:105AC000007F4141221C007F49494941007F09096B
:105AD0000901003E4149497A007F0808087F00001B
